:10000000000002209D190000851500006503000016
:1000100000000000000000000000000000000000E0
:100020000000000000000000000000008715000034
:100030000000000000000000891500008B15000082
:100040008D1500008F15000091150000931500001C
:100050009515000097150000991500009B150000EC
:100060009D1500009F150000A1150000A3150000BC
:10007000A5150000A7150000A9150000AB1500008C
:10008000AD150000AF150000B1150000B31500005C
:10009000B5150000B7150000B9150000BB1500002C
:1000A000BD150000BF150000C1150000C3150000FC
:1000B000C5150000C7150000DF150000DF150000A2
:1000C000C9150000CB150000CD150000CF150000AC
:1000D000D1150000D3150000D5150000D71500007C
:1000E000D9150000DF150000DF150000DF15000046
:1000F000DF150000DB150000DF150000DD15000036
:1001000080B586B08DF81700ADF814100020ADF85A
:100110000A008DF809008DF808004FF47A7001F09C
:10012000E7FABDF814002D2803D19620ADF80A0097
:100130003FE0BDF814005A2804D14FF4A070ADF888
:100140000A0036E0BDF81400872804D14FF4E170AE
:10015000ADF80A002DE0BDF81400B42804D140F237
:100160007620ADF80A0024E0BDF81400B32810DCB6
:10017000BDF8140000EE100AB8EEC00A9FED4A1A4E
:1001800020EE010ABDEEC00A10EE100AADF80A001A
:100190000FE0BDF8140000EE100AB8EEC00A9FEDA3
:1001A000411A20EE010ABDEEC00A10EE100AADF8A9
:1001B0000A009DF8170030B902208DF809000420CC
:1001C0008DF8080015E09DF81700012806D10120E0
:1001D0008DF8090004208DF808000AE003208DF84E
:1001E000090017208DF80800BDF80A001430ADF89A
:1001F0000A0099208DF80D009DF808008DF80E007A
:100200009DF809008DF80F009DF80B008DF8100087
:10021000BDF80A008DF811009DF81700032803D1DE
:1002200000208DF8120002E001208DF812008820D5
:100230008DF813000DF10D00072100F04DFF4FF474
:10024000FA7001F055FA012000F0C8FF8DF80700A0
:10025000022000F0C3FF8DF806009DF80700B8B932
:100260009DF80600A0B94FF4487001F041FA012052
:1002700000F0B4FF8DF80700022000F0AFFF8DF80A
:1002800006009DF8070018B99DF8060000B903E0C4
:10029000142001F02DFAD6E74FF4FA7001F028FA95
:0C02A00006B080BDCDCC5C40D7A3604010
:1002AC0085B0DDF814C0049003918DF80B200193F8
:1002BC000498019908600398059908609DF80B0053
:1002CC0001460091032817D80099DFE801F0020CD1
:1002DC00071105990868013808600DE00599086850
:1002EC000130086008E0019908680130086003E0FB
:0C02FC00019908680138086005B07047DF
:1003080083B08DF807009DF8070001460091032887
:100318001CD80099DFE801F0020E081441F61E40CF
:10032800C0F20000029016E041F62440C0F200003E
:10033800029010E041F6AE40C0F2000002900AE0E0
:1003480041F6B340C0F20000029004E041F6A0502C
:0C035800C0F200000290029803B0704751
:1003640008490A68002AFED41EF0040F0CBFEFF3FC
:100374000880EFF3098042F000420A60816902318B
:08038400816170472CED00E0DF
:10038C00034C206804348047FBE700F088FEFEE74E
:04039C00341F00000A
:1003A000002B35D129B9B0FBF2FC0CFB12026046E0
:1003B0007047914215D22DE9F041B2FA82F39A408A
:1003C0009940D3F1200C30FA0CFC51EA0C01984012
:1003D00000F04EF8280036FA03F200210023BDE8B1
:1003E000F081F0B5B1FBF2FC0CFB1211B2FA82F312
:1003F0009A409940D3F1200630FA06F631439840EE
:1004000000F036F8614628003200DA400023F0BDE3
:10041000F3B5B3FA83FC49085FEA300013FA0CF332
:10042000DCF1200432FA04F423430CB41A0000F087
:100430001FF80CBC33FA0CF3DCF11F0C35FA0CF589
:1004400018BF013D03BCA5FB026705FB0377801BBA
:10045000B941904271EB030C05D3821A71EB03038F
:10046000681C0021F0BD02000B0028000021F0BD37
:10047000940D4FF6C2752D02B5FBF4F4D60A013681
:1004800004FB04F5A5FB0656F64306EB04165508D7
:1004900032BF00277708013505FB1677A6FB074713
:1004A0007F0807EBC63714001500E7FB02457F1BEA
:1004B0004D1C0400E7FB014505FB1206A64284BF64
:1004C000013DB618964224BF0135B61A704700BFE9
:0C04D000701C0000FC040000DC040000B4
:1004DC00B5190000D5190000E1190000ED19000054
:1004EC000D1A0000191A00005716000029160000FA
:1004FC00721C00007A1D00007A1D00007A1D00009D
:10050C007A1D00007A1D00007A1D00007A1D000083
:10051C007A1D00007A1D0000FFFFFFFFFFFFFFFFA9
:10052C00FFFFFFFFFFFF0000741C00002C1D0000EC
:10053C00B11B0000491D0000081C00007B1D0000C1
:08054C00841D00000F1C0000DB
:1005540072B3844690EA01039B0721D1830709D033
:1005640011F8013B00F8013B013A20D08307F7D191
:1005740000E08446202A0AD32DE9F007B1E8F80701
:10058400A0E8F807203A202AF8D2BDE8F007042AA8
:1005940006D351F8043B40F8043B043A042AF8D249
:1005A4002AB111F8013B00F8013B013AF9D1604648
:0405B400704700BFCD
:1005B80000220B0011001A0084465AB3830704D0A6
:1005C80000F8011B013AF9D124E0C9B241EA01213E
:1005D80041EA0141202A11D3203A2DE9F0030B46C4
:1005E8000C460D460E460F4688468946A0E8FA0393
:1005F800203AFBD2BDE8F00320320BD0042A05D301
:1006080040F8041B043A05D0042AF9D200F8011B6B
:08061800013AFBD16046704776
:100620002DE9F04F89B002928846044600202060F0
:100630000DF10E0BABF101094FF0300ACDF800902F
:10064000454615F8011B252907D0002900F0B18186
:10065000204601F0E7F9A846F2E708F10208002277
:1006600018F8013C2A2B08DC202B13D0232B13D0A5
:10067000272B46D14FF400400FE05D2B06DD672BA2
:100680000FDC5E2B3DD14FF4805006E02B2B38D190
:10069000202002E0402000E08020024308F1010811
:1006A000DEE76B2B08DD6C2B0DD0742B18BF7A2B7B
:1006B00027D118F8013B24E0682B10D06A2B20D1F9
:1006C00018F8013B08E0404610F8013B6C2B12D1B2
:1006D00098F8013008F1020842F0020211E04046A9
:1006E00010F8013B682B09D198F8013008F1020895
:1006F00042F0080205E042F0010201E042F004028B
:100700008046622B17DDA3F1630015283FF698AFF2
:100710004FF0000CDFE800F01C0C0B0B0B0B0C0B6C
:100720000B0B0B242F330B0B3F0B520B0B1787E7D5
:1007300042F4804209E0252B00F08680582B40F0DF
:10074000278142F40052100632D44FF0000C35E0FD
:10075000029810F8041B0290204601F063F96FE73D
:10076000100700F11981900700F11B81029B1868A6
:10077000216801601AE110060AEAE07C1EE0029995
:10078000232351F8040B0291110603EAE17542F4A8
:1007900080720021BEE0029850F8045B029015F8C8
:1007A000011B00293FF44CAF204601F03BF9F6E76E
:1007B000782B43F2580C08BF43F2780C02F0020089
:1007C000510404D448B90298071D00210CE0A0B9D7
:1007D000029D55F8040BC11716E00298073020F06F
:1007E000070000F1080741680068550715D412F0AA
:1007F00008051CBFC0B2002111E00298073020F0AC
:100800000705696855F8080B570702950AD412F0D6
:1008100008071CBFC0B2002107E080B20021029788
:10082000654617E040F3C03100B2002906DB9706A9
:100830000FD46546570648BF20250BE000274042ED
:1008400067EB01012D2505E02046252101F0EAF89E
:10085000F6E62B2500266E2B23DD6F3B092B00F2DD
:100860008080DFE803F005577E7E7E7E247E7E5703
:1008700050EA010272D0C20842EA417200260627FD
:10088000134667F3DF000BF80600013652EAD10089
:100890004FEAD1014FEAD20040EA41721846EFD147
:1008A0005FE0582B36D0642B18BF692B59D150EA22
:1008B000010353D00195DA4602F4004900260D46A3
:1008C0000746B9F1000F09D006F00300032805D14F
:1008D000D3462C200AF80600013600E0D3463846FD
:1008E00029460A220023FFF75BFD00EB8002A7EBFD
:1008F000420242F030020BF806200136D7F109021D
:100900004FF00002AA41DAD3D346DDE900954FF05B
:10091000300A26E050EA010320D0920441F6F46246
:10092000C0F200025CBF41F60472C0F200024FEA5E
:10093000101343EA01734FF0000600F00F0718464A
:10094000D35D0BF80630013650EA11134FEA11114E
:100950004FEA101343EA0173EFD102E08DF80EA0C5
:100960000126FF2D04D9290A204601F05BF800E09A
:100970001DB12046294601F055F8012EFFF660AE64
:1009800019F80610204601F04DF8013EF8D857E658
:10099000002B7FF455AE1BE0029B186821680170A4
:1009A00004E0029B21681868002206C00433029309
:1009B00046E6E06828B1D4E9001291423CBF00222B
:1009C0004254204600F04EFE206809B0BDE8F08F8A
:0C09D000204600F047FE4FF0FF30F6E735
:1009DC00084B1B6883420AD0074B1B68834206D026
:1009EC00064B1B68181A18BF4FF0FF3070470020D9
:1009FC00704700BFF4040020F0040020F80400202D
:040A0C0040207047CF
:080A1000006800F0D5B800BF3A
:100A18001448154A032110B50161144C41614FF483
:100A2800806182610023C4610162114C83621021DC
:100A38004362C3620266446681660367C3664367AE
:100A4800BFF35F8F0B4B5321A3F10F0E9C4601E0C0
:100A580013F80119ACEB030273458154F8D1BFF3C5
:100A68005F8F10BD00040020980E000000000020D9
:080A7800A8040020C20E0000DA
:100A80002DE9F843C568D0F80890A9EB0508904512
:100A90000446164609D940682844FFF75BFDBFF3BA
:100AA0005F8F3544E560BDE8F883406828443544ED
:100AB0000F464246A5EB0905FFF74CFD60682A4644
:100AC00007EB0801FFF746FDBFF35F8FE560BDE868
:040AD000F88300BFE8
:100AD4002DE9F8430646D0E90204894617464FF04B
:100AE400000833699C4203F1FF3228BF03F1FF334E
:100AF400A0EB04052ABF1B18131B1B1BBD4228BFF8
:100B04003D469D42706828BF1D46494620442A46FA
:100B1400FFF71EFDB0682C44A844A9447F1BA042E3
:100B240008BF0024BFF35F8FF460002FD9D1404683
:040B3400BDE8F8839D
:100B380038B5204B00EB400403EBC40E0130DEF85F
:100B48002C4000EB4000012C8C46154603EBC000FE
:100B580005D0022C2AD0B4B10024204638BDDEF8D6
:100B68002830DEF82440A3429CBFDEF820105B1832
:100B7800013B1C1B944228BF144622466146FFF7DE
:100B88007BFF204638BDDEF82830DEF8242093426B
:100B98009CBFDEF820105B18013B9A1A9542DCD8FE
:100BA8002A466146FFF768FF2C46D6E7BDE838407D
:080BB800FFF78CBF00040020D0
:100BC000F8B50B4B1B7804460D4616466BB1EFF398
:100BD00011874FF0200181F31188324629462046C3
:100BE000FFF7AAFF87F31188F8BDFFF715FFEEE7BF
:040BF00000040020DD
:100BF40080B58AB040F2BC40C2F2000000680890A0
:100C040040F2B840C2F200000068079040F2D940B8
:100C1400C2F20000007801460691032813D8069911
:100C2400DFE801F0020A060E0798013807900AE08F
:100C340007980130079006E008980130089002E018
:100C44000898013808900898079900F055FE58B99B
:100C54000899079A41F6CC50C0F2000000F06CFFEE
:100C640000208DF827002CE0089840F2BC41C2F225
:100C7400000104910860079A40F2B840C2F20000F3
:100C840003900260096801910068029040F2D94023
:100C9400C2F200000078FFF735FB0199029A03467F
:100CA40041F6F450C0F2000000F046FF03990498A6
:100CB400006809680122059200F004FB05988DF88C
:0A0CC40027009DF827000AB080BD4C
:100CCE0080B500F018F978B140F20C11C4F20001B1
:100CDE000020086040F21011C4F20001086040F2DA
:100CEE003851C4F20001086000F036F9002800F017
:100CFE00AA8040F20440C1F2000000684CF220517C
:100D0E00C4F20001086040F20840C1F20000006821
:100D1E004CF22451C4F20001086040F20C40C1F2C2
:100D2E00000000684CF22851C4F20001086040F245
:100D3E001040C1F2000000684CF22C51C4F20001C8
:100D4E00086040F21440C1F2000000684CF23051CD
:100D5E00C4F20001086040F21840C1F200000068C1
:100D6E004CF23451C4F20001086040F21C40C1F252
:100D7E00000000684CF24051C4F20001086040F2DD
:100D8E002040C1F2000000684CF24451C4F2000150
:100D9E00086040F22440C1F2000000684CF2485155
:100DAE00C4F20001086040F22840C1F20000006861
:100DBE004CF24C51C4F20001086040F22C40C1F2DA
:100DCE00000000684CF25051C4F20001086040F27D
:100DDE003040C1F2000000684CF25451C4F20001E0
:100DEE00086040F23440C1F2000000684CF26051DD
:100DFE00C4F20001086040F23840C1F20000006801
:100E0E004CF26451C4F20001086040F23C40C1F261
:100E1E00000000684CF26851C4F20001086040F214
:100E2E004040C1F2000000684CF26C51C4F2000167
:100E3E00086040F24440C1F2000000684CF270516C
:100E4E00C4F20001086000F0B8F868B140F200404A
:100E5E00C4F200000068C00730B140F20041C4F295
:100E6E0000016FF0010008604EF68851CEF20001CD
:100E7E00086840F470000860BFF34F8FBFF36F8FA8
:0A0E8E0000F0CCF800F0F7FB80BD87
:090E98005465726D696E616C0015
:100EA1004578706C6F72696E6720677269642E2E67
:030EB1002E0A0006
:100EB4000000000000005454522052454747455357
:010EC400002D
:100EC5004F62737461636C652064657465637465F2
:100ED50064206F757473696465206F66206D617039
:100EE50020626F756E646172696573206174206339
:0F0EF500656C6C202825642C202564292E0A00AA
:100F040084B040F23010C1F200000068029040F258
:100F14003410C1F200000068019002980D2819D124
:100F24000198009030B10098012807D00098022859
:100F340008D00BE001208DF80F000EE001208DF8A1
:100F44000F000AE001208DF80F0006E001208DF863
:100F54000F0002E000208DF80F009DF80F0004B090
:020F64007047D4
:100F660084B040F23010C1F200000068029040F2F6
:100F76003410C1F200000068019002980D2819D1C2
:100F86000198009030B10098012807D000980228F7
:100F960008D00BE001208DF80F000EE001208DF83F
:100FA6000F000AE001208DF80F0006E001208DF801
:100FB6000F0002E000208DF80F009DF80F0004B02E
:020FC600704772
:100FC80084B040F23010C1F200000068029040F294
:100FD8003410C1F200000068019002980D2819D160
:100FE8000198009030B10098012807D00098022895
:100FF80008D00BE001208DF80F000EE001208DF8DD
:101008000F000AE001208DF80F0006E001208DF89E
:101018000F0002E000208DF80F009DF80F0004B0CB
:0210280070470F
:10102A0080B500F00CF848B141F20820C1F2000086
:0E103A00006840F25851C4F20001086080BD09
:1010480084B040F23010C1F200000068029040F213
:101058003410C1F200000068019002980D2819D1DF
:101068000198009030B10098012807D00098022814
:1010780008D00BE000208DF80F000EE000208DF85E
:101088000F000AE001208DF80F0006E001208DF81E
:101098000F0002E000208DF80F009DF80F0004B04B
:0210A80070478F
:1010AA0080B582B00020019000F0F1FA00F029FB2F
:1010BA0000F0EAF840F6A160C0F2000000F039FD45
:0E10CA0000F0BCF942F2107000F00DFBF2E7EE
:1010D80082B001908DF8031000208DF8020001996C
:1010E8009DF80220895C43F21C52C4F20002116090
:1010F80043F21C11C4F20001086043F20801C4F273
:101108000001012008609DF8020001308DF80200FE
:101118009DF802009DF8031088421BDA43F21C1068
:10112800C4F20000006800B9F8E743F21C11C4F2E9
:1011380000010020086001989DF80210405C43F20D
:101148001C51C4F2000108609DF8020001308DF8BE
:101158000200DDE743F21C10C4F20000006800B989
:10116800F8E743F21401C4F200010120086002B05C
:021178007047BE
:10117A0081B08DF8030000208DF802009DF803006D
:10118A0043F28851C4F20001086043F20001C4F23C
:10119A0000010120086043F20810C4F20000006850
:1011AA0000B9F8E743F20811C4F200010020086010
:1011BA0043F21850C4F2000000688DF8020043F2AE
:1011CA001401C4F20001012008609DF8020001B078
:0211DA0070475C
:1011DC0080B582B08DF8070099208DF800000520AD
:1011EC008DF801009DF807008DF8020000208DF8A5
:1011FC0003008DF804008DF8050088208DF806009A
:10120C0068460721FFF762FF1020FFF7B0FF02B01E
:02121C0080BD93
:10121E0082B001900198411E019150B100200090C2
:10122E000098022804D800BF009801300090F7E71C
:06123E00F0E702B070476A
:1012440080B584B08DF80F008DF80E1099208DF8BC
:10125400070003208DF808009DF80F008DF80900A1
:101264009DF80E008DF80A0000208DF80B008DF813
:101274000C0088208DF80D000DF107000721FFF701
:0E12840029FF4FF4487000F031FA04B080BD2D
:1012920080B582B0002001900198022811DC002064
:1012A20000900098022808DC01980099002200F0C2
:1012B2000AF8009801300090F3E70198013001909C
:0612C200EAE702B080BD66
:1012C80083B0029001918DF803200298002802D47F
:1012D8000298032800DB12E00198002802D4019844
:1012E800032800DB0BE09DF80300029901EB4102A3
:1012F80040F2D041C2F200011144019A885403B06F
:0213080070472C
:10130A0080B586B000F031FA0290029941F6D540D4
:10131A00C0F2000000F00DFC40F2BC40C2F2000036
:10132A00006840F2B841C2F20001096840F2D942AD
:10133A00C2F200021278EC4603ABCCF8003004ABE0
:10134A00FEF7AFFF02980A2816DC0498039900F00A
:10135A00D0FA28B1049803990222FFF7B0FF07E0F8
:10136A000499039A40F6C560C0F2000000F0E1FB60
:10137A0001208DF8170002E000208DF817009DF873
:06138A00170006B080BD53
:1013900080B541F65A40C0F2000000F0CFFB0020BB
:1013A00000F052FA40F2B840C2F200000068012892
:1013B00015DB40F2BC40C2F20000016840F2B840C8
:1013C000C2F20000026841F66830C0F2000000F08E
:1013D000B5FB00F0B1FA642000F08AF9E2E700F012
:1013E000ABFA032000F030FA40F2BC40C2F2000039
:1013F0000068012812DB40F2BC40C2F20000016824
:1014000040F2B840C2F20000026841F66830C0F213
:10141000000000F093FB00F08FFAE5E700F08CFA93
:1014200041F67F30C0F2000000F088FB032000F09E
:101430000BFA002000F008FA022000F005FA012063
:0614400000F002FA80BD7D
:1014460080B586B001200190059040F2BC42C2F200
:10145600000200210291116040F2B842C2F200027D
:10146600116040F2D941C2F20001087041F6E6402F
:10147600C0F2000000F05FFB019A02990846FFF7F0
:1014860020FF02980490049802286EDC0020039046
:10149600039802280BDCFFF735FF10B1FFF775FF45
:1014A6006BE000F046FA039801300390F0E70498E9
:1014B600012856DC04994A1C41F61860C0F2000067
:1014C60000F039FB0598012824D1022000F0B9F973
:1014D60041F63460C0F2000000F02DFBFFF712FF6A
:1014E60090B140F2BC40C2F20000016840F2B84040
:1014F600C2F20000026841F65060C0F2000000F03F
:101506001AFBFFF742FF38E000F013FA032000F061
:1015160098F923E041F69630C0F2000000F00BFB8C
:10152600022000F08EF9FFF7EDFE90B140F2BC40CC
:10153600C2F20000016840F2B840C2F20000026840
:1015460041F65060C0F2000000F0F5FAFFF71DFF0B
:1015560013E000F0EEF9012000F073F9059840421F
:1015660005900498013004908DE741F6FF40C0F2E3
:0E157600000000F0E0FAFFF708FF06B080BDAD
:02158400FEE780
:02158600FEE77E
:02158800FEE77C
:02158A00FEE77A
:02158C00FEE778
:02158E00FEE776
:02159000FEE774
:02159200FEE772
:02159400FEE770
:02159600FEE76E
:02159800FEE76C
:02159A00FEE76A
:02159C00FEE768
:02159E00FEE766
:0215A000FEE764
:0215A200FEE762
:0215A400FEE760
:0215A600FEE75E
:0215A800FEE75C
:0215AA00FEE75A
:0215AC00FEE758
:0215AE00FEE756
:0215B000FEE754
:0215B200FEE752
:0215B400FEE750
:0215B600FEE74E
:0215B800FEE74C
:0215BA00FEE74A
:0215BC00FEE748
:0215BE00FEE746
:0215C000FEE744
:0215C200FEE742
:0215C400FEE740
:0215C600FEE73E
:0215C800FEE73C
:0215CA00FEE73A
:0215CC00FEE738
:0215CE00FEE736
:0215D000FEE734
:0215D200FEE732
:0215D400FEE730
:0215D600FEE72E
:0215D800FEE72C
:0215DA00FEE72A
:0215DC00FEE728
:0215DE00FEE726
:1015E000F8B51D4617460C4606461846FFF7F6F9AD
:1015F000002803D407FB04F2A24201D20020F8BD68
:0E16000028463146FFF704FAB0FBF4F0F8BDBF
:10160E0040F2C041C2F20001086800B1704740F2DA
:0A161E00DC40C2F2000008607047D3
:101628009AB18446097848B2002844BF6FF0010097
:101638007047BCF1000F18BFCCF800100021C3E9B7
:0E1648000011002818BF0120704700207047D5
:0E1656007F298EBF6FF00100017001207047E8
:1016640010B5426932B10446036A0BB12169984747
:061674000020606110BDC2
:0A167A00436A08460121FFF7AEBFE6
:1016840040F2FC41C2F2000149F20000C0F2D03045
:041694000860704733
:1016980040F26871C5F2000140F20260086040F64D
:1016A8000021C5F20001086043F20051C4F20001B4
:1016B8000520086043F20851C4F200011A200860AE
:1016C80043F20C51C4F200012020086043F2245177
:1016D800C4F200014FF0CC70086043F28851C4F2A4
:0816E8000001102008607047AA
:1016F00080B582B001900198411E019120B14FF454
:0C1700007A70FFF78CFDF6E702B080BDA8
:10170C0040F22870C5F200000321016040F20C5237
:10171C00C5F200024FF48060106040F23070C5F2E8
:10172C0000000022026048F20403C4F2000301200E
:10173C00186048F20453C4F200031A6048F20852CD
:10174C00C4F20002116048F21052C4F200020421EB
:10175C00116048F20C01C4F20001086048F200016B
:08176C00C4F20001086070479F
:1017740080B584B040F20851C5F200014FF4806096
:10178400086000F053F8029000F050F80299401AF3
:10179400092800D8F8E740F20C51C5F200014FF4D3
:1017A4008060086000F042F8029040F21050C5F2E8
:1017B40000000068C00400280CD400F037F8029937
:1017C400401A41F28931884203D340F2E730039052
:1017D40029E0EAE700F02AF8019040F21050C5F23F
:1017E40000000068C00400280CD500F01FF801991F
:1017F400401A46F2A911884203D340F2E73003901D
:1018040011E0EAE700F012F80199401A0090642010
:10181400FFF76CFF00984CF60931C8F63D51A0FB68
:0C182400011040090390039804B080BD3F
:1018300048F24001C4F200010120086048F2405023
:08184000C4F2000000687047CB
:1018480080B582B08DF807009DF8070040F2D941B5
:10185800C2F200010978401A0090009800B947E0E8
:101868000098012802D00098033088B940F2D94086
:10187800C2F2000001789DF8072041F62A40C0F224
:10188800000000F057F903205A21FEF735FC28E044
:101898000098013010B10098032811D140F2D940C6
:1018A800C2F2000001789DF8072041F6B840C0F266
:1018B800000000F03FF902205A21FEF71DFC10E05D
:1018C80040F2D940C2F2000001789DF8072041F6A5
:1018D800A850C0F2000000F02DF90220B421FEF754
:1018E8000BFC9DF8070040F2D941C2F200010870D4
:0418F80002B080BDFD
:1018FC0083B0019000910198002802D4019803282C
:10190C0003DB00208DF80B000CE00098002802D4BB
:10191C000098032803DB00208DF80B0002E0012067
:0C192C008DF80B009DF80B0003B0704715
:1019380080B584B040F2BC40C2F20000006801905B
:1019480040F2B840C2F200000068029040F2D9406C
:10195800C2F2000003900078FEF7D2FC0199029AC7
:10196800034641F6F450C0F2000000F0E3F8039893
:101978000078FFF765FF01200A21FFF75FFCFFF7FA
:1019880035F928B941F64840C0F2000000F0D2F815
:0419980004B080BD5A
:10199C00FFF797F94EF68850CEF20000016851F42B
:0819AC0070010160FEF7ECFC84
:1019B4007F2884BF0020704741F68D52C0F2000298
:1019C400515C41F67462C0F20002105C084070473A
:0C19D400A0F161011A2938BF20387047CB
:0C19E000A0F141011A2938BF20307047E7
:1019EC007F2884BF0020704741F68D52C0F2000260
:1019FC00515C41F67462C0F20002105C0840704702
:0C1A0C00A0F161011A2938BF2038704792
:0C1A1800A0F141011A2938BF20307047AE
:101A240010B582B0044600698DF8071078B1D4E986
:101A340000239A421CD26269531C63618154D4E925
:101A44000501884214D12046FFF70AFE10E0D4F8BD
:101A54000CC0BCF1000F10D0D4E90023501C9842F4
:101A640004BF00218DF807109A4238BF0CF8021009
:101A740020680130206002B010BDA06858B1D4E9DC
:101A8400002C6245F4D2531CB3EB0C0318BFCBB249
:101A940040F82230ECE7236A002BE9D0D4E90001B6
:101AA4008842E5D20DF10701204601229847DFE77D
:101AB40070B514460D460646FFF7A7FD01463046AD
:0C1AC4002A462346BDE8704000F000B840
:101AD0002DE9F04F03AF8DB047F83C3C91460E46E0
:101AE0000446FEF793FF0546EB46073020F007005B
:101AF000ADEB0008C546A7F1380A50460021242264
:101B0000FEF75EFD41F27B60C0F2000047E907602E
:101B10006FF0004047F8340C47F8144C47F8205C4D
:101B200047F8288C5046494657F83C2CFEF778FD7C
:0C1B3000DD46A7F10C04A546BDE8F08FCF
:101B3C0083B000B582B00DF10C0C8CE80E0040F2B5
:101B4C00F042C2F200020146106803AA0192FFF7AC
:0C1B5C00ABFF02B0BDE8004003B07047D2
:101B680063757272656E7420706F733A20282564ED
:071B78002C202564290A005E
:101B7F0041727269766564206174206261736520B9
:071B8F0028302C30290A0068
:101B96005475726E696E67206C65667420746F206A
:0B1BA6006D6F766520646F776E0A009B
:101BB1004A616E756172790046656272756172790A
:101BC100004D6172636800417072696C004D61790A
:101BD100004A756E65004A756C79004175677573C9
:101BE100740053657074656D626572004F63746F44
:101BF100626572004E6F76656D6265720044656361
:071C0100656D6265720000D1
:071C0800414D00504D0000AA
:0F1C0F00256120256220256520255420255900B8
:061C1E004E4F5254480035
:061C2400534F5554480027
:101C2A00526F746174696E6720726967687420669E
:0E1C3A00726F6D20256420746F2025640A00EF
:101C48004D6F76656D656E7420626C6F636B65644D
:021C58000A0080
:101C5A0052657475726E696E6720746F2062617363
:061C6A00652E2E2E0A007B
:021C700043002F
:021C72002E0042
:101C740053756E646179004D6F6E646179005475BB
:101C84006573646179005765646E65736461790096
:101C9400546875727364617900467269646179008D
:0A1CA40053617475726461790000E9
:051CAE00454153540004
:051CB3005745535400E9
:101CB800526F746174696E67206C65667420667211
:0D1CC8006F6D20256420746F2025640A00D4
:101CD50044697374616E63653A20256420636D0AF7
:011CE50000FE
:101CE6005374617274696E67206578706C6F726187
:091CF60074696F6E2E2E2E0A0097
:101CFF004578706C6F726174696F6E20636F6D7071
:101D0F006C657465642E2052657475726E696E67AA
:0D1D1F0020746F20626173652E2E2E0A0065
:101D2C0053756E004D6F6E005475650057656400F9
:0D1D3C005468750046726900536174000020
:101D49004A616E00466562004D6172004170720021
:101D59004D6179004A756E004A756C0041756700DE
:101D6900536570004F6374004E6F760044656300DD
:011D79000069
:011D7A000068
:091D7B00256D2F25642F25790048
:091D840025483A254D3A2553008B
:0D1D8D0000070320041702010857104080D2
:041D9C0085160000A8
:081DA000554E4B4E4F574E000B
:101DA800526F746174696E672031383020646567DA
:101DB800726565732066726F6D20256420746F20CC
:041DC80025640A0084
:101DCC00426C6F636B6564206D6F76656D656E74C8
:101DDC00206F75747369646520677269643A202892
:081DEC0025642C2564290A007E
:101DF400526F626F742028782C792C206865616496
:101E0400696E67293A202825642C2025642C202516
:041E140073290A0024
:101E18004368616E67696E6720726F772066726FBC
:0C1E28006D20256420746F2025640A00E2
:101E34005475726E696E6720726967687420746F76
:0C1E4400206D6F766520646F776E0A00D9
:101E50004F62737461636C65206465746563746557
:101E6000642061742063656C6C202825642C202517
:041E700064290A00D7
:101E740020202020202020202068282828282020F6
:101E8400202020202020202020202020202020204E
:101E94004810101010101010101010101010101006
:101EA40084848484848484848484101010101010A6
:101EB40010818181818181010101010101010101FF
:101EC40001010101010101010101011010101010B3
:101ED40010828282828282020202020202020202D0
:101EE4000202020202020202020202101010102078
:101EF400303132333435363738394142434445463C
:101F0400303132333435363738396162636465666B
:101F1400754605480549884205D00268043003B473
:101F2400904703BCF7E728479C1D0000A01D000054
:101F34007D1F000000000020DA0400008F1F000055
:101F4400DC040020581F000024000000151F0000BE
:041F540097030000EF
:101F5800D0040000D0040000D0040000D004000029
:101F6800D0040000C4040020C8040020CC040020D1
:041F78000090D00302
:101F7C00206861680834002200E042540139FCD525
:021F8C0070479C
:101F8E0020686168A2680C3401E08B5C8354013ACE
:041F9E00FBD57047B8
:040000030000199D43
:00000001FF
